:020000021000EC
:10B000000080002049DC010089DC01008BDC0100AC
:10B010000000000000000000000000000000000030
:10B020000000000000000000000000008DDC0100B6
:10B0300000000000000000008FDC010091DC010036
:10B04000A9E1010093DC010093DC0100D9CF0100EC
:10B0500093DC010000000000FDD8010093DC01003A
:10B0600037BC010047BC010057BC010093DC010064
:10B0700093DC010093DC010093DC010093DC010010
:10B0800093DC010093DC010093DC010093DC010000
:10B0900093DC010093DC010079DF010093DC010007
:10B0A00093DC010093DC01000000000000000000C0
:10B0B0000000000000000000000000000000000090
:10B0C00010B5064C2378002B07D1054B002B02D07E
:10B0D000044800E000BF0123237010BD901400203D
:10B0E00000000000E0E20100044B10B5002B03D08B
:10B0F0000349044800E000BF10BDC0460000000046
:10B1000094140020E0E20100402292029A1A924632
:10B110007047C046174B002B00D1134B9D46FFF7DD
:10B12000F3FF00218B460F461348144A121A00F011
:10B1300065F80E4B002B00D098470D4B002B00D02C
:10B1400098470020002104000D000D48002802D07F
:10B150000C4800E000BF00F02DF82000290000F0AE
:10B1600057F800F011F8C046000008000000000089
:10B17000000000000080002090140020101C00201F
:10B180000000000000000000084B10B50400002B78
:10B1900002D0002100E000BF054B1868836A002B35
:10B1A00000D09847200000F031F8C04600000000B1
:10B1B00070E2010070B500260C4D0D4C641BA4100C
:10B1C000A64209D1002603F047F80A4D0A4C641B39
:10B1D000A410A64205D170BDB300EB5898470136C4
:10B1E000EEE7B300EB5898470136F2E788140020E9
:10B1F00088140020881400208C140020030082187A
:10B20000934200D1704719700133F9E7FEE7C04659
:10B2100080B582B000AFFB1D00221A70FB1D180024
:10B2200000F058F8FB1D1B78002B01D100F082F8CC
:10B23000FEE780B582B000AF7860A023DB05180080
:10B24000BD4602B080BD90B585B000AF78600C00FF
:10B2500010001900FB1C221C1A70BB1C021C1A7067
:10B260007B1C0A1C1A703B1D1800FFF7E2FF03004D
:10B27000FB60FB1C1A78BB1C1B785B001A437B1C11
:10B280001B789B001A432023FB181B781B021A43D0
:10B2900011002423FB181B781B047A681943FB68F0
:10B2A000C132FF329200D150C046BD4605B090BDBC
:10B2B00080B584B002AF78607868002301930023E2
:10B2C0000093002301220121FFF7BDFFC046BD46C8
:10B2D00002B080BD90B585B000AF78600F243B19F7
:10B2E00000221A70124B1900002001F0F3FA3B19EA
:10B2F000180000F02FF83B191B78002B03D13B19E5
:10B30000180000F059F80F22BB181B78002B03D14E
:10B31000BB18180000F082F87B68002B04D00F23C4
:10B32000FB181A787B681A70C046BD4605B090BD00
:10B3300074E2010080B582B000AFFB1D00221A70DC
:10B34000FA1D034B1100180000F092F9FEE7C04609
:10B35000801B002090B585B000AF78600023FB60B3
:10B3600008243B19124A12681A6002F093F903008C
:10B37000FB60FB68002B07D10E4A3B19190008201F
:10B3800002F0D4F90300FB600A20FFF791FF0120CF
:10B39000FFF78EFFFB68002B05D07B68002B02D0E7
:10B3A0007B6803221A70C046BD4605B090BDC046FA
:10B3B00090E201005DBA0100F0B585B000AF7860A1
:10B3C0000F243B1900221A700E257B1900221A70D7
:10B3D0000D26BB1900221A7001F03CF87B190B49AD
:10B3E0000B48002200F040FCBB190A490A48002221
:10B3F00000F0C6FD7B68002B03D07B683A191278F9
:10B400001A70C046BD4605B0F0BDC04634140020D9
:10B41000881B0020441400206814002090B585B0DB
:10B4200000AF78600F243B1900221A703A190849BE
:10B43000084B180000F09AF87B68002B03D03B19EA
:10B440001A787B681A70C046BD4605B090BDC046EC
:10B4500028140020801B002080B584B000AF7860E5
:10B460000D4BFB607B68002B11D00C4B1A68F96800
:10B470007B68C046C046C046C046C046C046C046BF
:10B48000C0468A4200D0C046013BF2D17B60C04634
:10B49000BD4604B080BDC0460024F40084140020E2
:10B4A00080B582B000AF78607A6813005B019B1AA8
:10B4B0009B009B18DB001800FFF7CEFFC046BD467F
:10B4C00002B080BD80B582B000AF7860A023DB05FC
:10B4D0001800BD4602B080BD80B584B000AF786072
:10B4E0003B1D1800FFF7EEFF0300FB607B680122A5
:10B4F0009A40FB681100180000F01AF8C046BD46DB
:10B5000004B080BD80B584B000AF78603B1D1800EA
:10B51000FFF7D8FF0300FB607B6801229A40FB68BD
:10B520001100180000F012F8C046BD4604B080BDFE
:10B5300080B582B000AF786039607A68A123DB0003
:10B540003968D150C046BD4602B080BD80B582B0DA
:10B5500000AF786039607B6803493A685A50C0464A
:10B56000BD4602B080BDC0460C05000090B587B056
:10B5700000AFF860B9607A6017243B1900221A7096
:10B58000FB68002B62D0BB68002B5FD0FB68BA68F9
:10B590001A60FB6800221A712020FFF75DFF3A193C
:10B5A000FB681100180000F027FA3B191B78002BEC
:10B5B00008D13A19FB681121180000F0CCF80820D6
:10B5C000FFF74AFF17243B191B78002B12D11420D8
:10B5D0003B1880221A703B181A7820210A431A70EF
:10B5E0003B193A18F868022100F0EEF81F4B1800DA
:10B5F000FFF732FF1722BB181B78002B07D1FB681F
:10B600001B68197ABA18FB68180000F060F9172255
:10B61000BB181B78002B05D1BA18FB681100180065
:10B6200000F036F91722BB181B78002B05D1BA1889
:10B63000FB681100180000F07DF91723FB181B7838
:10B64000002B07D1FB6801221A7103E01723FB18B6
:10B6500001221A707B68002B04D01723FB181A787C
:10B660007B681A70C046BD4607B090BD400D030010
:10B6700090B585B000AF786039600F217B1800224B
:10B680001A700C007A187B681021180000F063F81B
:10B690003B191B78002B03D10121082002F0ACF8E4
:10B6A0003B68002B04D00F23FB181A783B681A70F4
:10B6B000C046BD4605B090BDF0B587B000AFF8609C
:10B6C0007A600A23FB180A1C1A801623FB18002232
:10B6D0001A801423FB1800221A802EE016243B192E
:10B6E0001B880133FA68D3181B781AB23B191B88E0
:10B6F000F968CB181B781B021BB213431AB2122530
:10B700007B191A807B1902221900002001F0B6F87B
:10B710001426BB191B885B007A68D318791902229A
:10B72000180002F081FD3B193A19128802321A8082
:10B73000BB191A88BB1901321A801623FB181A8804
:10B740000A23FB181B88013B9A42C7DBC046C04650
:10B75000BD4607B0F0BD90B587B000AFF8607A6025
:10B760000B23FB180A1C1A7017217B1800221A7071
:10B770001623FB1800221A70FB68002B03D17B18DC
:10B7800001221A7014E0FB681B68186816243B1924
:10B790000B22B918012200F071FC0820FFF75CFEB3
:10B7A0003B191B78002B03D01723FB1803221A70B8
:10B7B0007B68002B04D07B681722BA1812781A70A5
:10B7C000C046BD4607B090BDF0B587B000AFF86089
:10B7D0007A603B600B257B190A1C1A701726BB196F
:10B7E00000221A7014243B1900221A7010203B18F2
:10B7F000254A12881A800222002199547B191A784E
:10B8000016257B1921498A5C1A701523FB1803221F
:10B810001A70FB68002B27D07B68002B24D07B1983
:10B820001B7840221343DAB201007B181A707B1890
:10B8300000225A707B681A787B189A70FB681B6824
:10B8400018681523FB181B789AB23B19791800F079
:10B8500015FC0820FFF700FE3B191B78002B07D0D2
:10B86000BB1903221A7003E01723FB1801221A7078
:10B870003B68002B04D03B681722BA1812781A7064
:10B88000C046BD4607B0F0BDA0E2010094E2010051
:10B8900090B585B000AF786039600F217B18002229
:10B8A0001A700E203B1880221A700C007B183A1870
:10B8B00078680A21FFF788FF3B68002B03D03B190B
:10B8C0001A783B681A70C046BD4605B090BDB0B549
:10B8D00086B000AFF8607A600B203B180A1C1A7023
:10B8E00017243B1900221A7014257B1900221A70A4
:10B8F0003B181B7807221340DAB27B1907210A4054
:10B9000010001A7807218A43111C021C0A431A707E
:10B910003B197A19F8680121FFF756FF7B68002B65
:10B9200003D03B191A787B681A70C046BD4606B032
:10B93000B0BD0000B0B584B000AF786039600F24AE
:10B940003B1900221A700C203B1880221A7008251F
:10B950007B1900221A703B181A7820210A431A70AA
:10B960003B193A1878680221FFF72EFF214B180087
:10B97000FFF772FD7B681B685B7A1A1C0723134074
:10B98000DAB27B1907210A4010011A7870218A4324
:10B99000111C021C0A431A703B191B78002B05D19D
:10B9A0003B197A1978680421FFF70EFF0F22BB18A4
:10B9B0001B78002B06D1BB180822BA18786805211D
:10B9C000FFF702FF0F243A197B681A211800FFF7CE
:10B9D000C2FE9B235B001800FFF762FD3B68002B53
:10B9E00003D03B191A783B681A70C046BD4604B0B4
:10B9F000B0BDC046400D030090B585B000AF786083
:10BA000039600F243B1900221A700120FFF764FDF2
:10BA1000114B1800FFF720FD0120FFF773FD0820F0
:10BA2000FFF71AFD0120FFF757FD2420FFF714FD53
:10BA30003A197B6806211800FFF78DFE4820FFF7B2
:10BA40000BFD3B68002B03D03B191A783B681A703A
:10BA5000C046BD4605B090BD400D0300F0B587B0AF
:10BA600000AF78600A00FB1C1A7017257B190022B2
:10BA70001A7010243B1900221A6000229A800826AE
:10BA8000BB19180006231A000021FFF7B7FB7B192A
:10BA90003A190748062100F061FBBA193B19062143
:10BAA0001800FFF709FEC046BD4607B0F0BDC0460E
:10BAB0006814002080B582B000AF0200FB1D1A7030
:10BAC000FB1D1B781A001F231A40044B01219140D3
:10BAD0000A001A60C046BD4602B080BD00E100E029
:10BAE00080B582B000AF0200FB1D1A70FB1D1B78F1
:10BAF0001A001F231340054901229A40C0235B000E
:10BB0000CA50C046BD4602B080BDC04600E100E05C
:10BB100090B583B000AF02003960FB1D1A70FB1DA9
:10BB20001B787F2B32D92F4AFB1D1B7819000F235E
:10BB30000B40083B9B0806339B00D31804331B685B
:10BB4000FA1D1278110003220A40D200FF21914011
:10BB50000A00D2431A4011003B689B01FF221A40A1
:10BB6000FB1D1B78180003230340DB009A401D488F
:10BB7000FB1D1B781C000F232340083B9B080A4336
:10BB800006339B00C31804331A6027E0164AFB1DD6
:10BB90001B785BB29B08C0339B009B58FA1D127840
:10BBA000110003220A40D200FF2191400A00D24333
:10BBB0001A4011003B689B01FF221A40FB1D1B78B5
:10BBC000180003230340DB009A400748FB1D1B7845
:10BBD0005BB29B080A43C0339B001A50C046BD4667
:10BBE00003B090BD00ED00E000E100E090B585B04D
:10BBF00000AF78600A00FB1C1A707B681A0B0F24D8
:10BC00003B191A703B1900229A56FB1C1B7819002D
:10BC10001000FFF77DFF3B191B785BB21800FFF7A0
:10BC20005FFF3B191B785BB21800FFF743FFC0466C
:10BC3000BD4605B090BD80B500AF002000F088F88B
:10BC4000C046BD4680BD80B500AF012000F080F841
:10BC5000C046BD4680BD80B500AF022000F078F838
:10BC6000C046BD4680BD000080B586B000AFF8601C
:10BC7000B9607A603B601723FB1800221A70FB68DA
:10BC8000002B50D0BB68002B4DD0FB68BA681A60FF
:10BC9000FB6802221A71FB681B68DB79DA002A4B09
:10BCA000D3183B613B697A681A60FB681B68DA68E5
:10BCB0003B695A60FB681B681B68180000F058FB62
:10BCC000FB681B681A68FB681B681B7A1900100068
:10BCD000FFF78CFFFB681B681A68FB681B681B7901
:10BCE0001900100000F0EFFAFB681B681A68FB6887
:10BCF0001B685B791900100000F01EFBFB681B68D5
:10BD00001A68FB681B689B791900100000F0F7FAAD
:10BD1000FB681B68DB791A000C4B01219954FB6806
:10BD200001225A7103E01723FB1801221A703B68A5
:10BD3000002B04D03B681722BA1812781A70C0463C
:10BD4000BD4606B080BDC046B0140020AC14002033
:10BD5000F0B585B000AF0200FB1D1A70FB1D1B780B
:10BD60002B4AD35C002B4FD00F23FB1800221A70F4
:10BD700045E0FB1D1A78274B9200D2580F257B19FE
:10BD80001B781900100000F04CFB031E31D0FB1D86
:10BD90001A78204B9200D2587B191B78190010009A
:10BDA00000F01AFB031E24D00C26BC197B191B784B
:10BDB000180000F026FB03002380FB1D1A78154BAA
:10BDC0009200D2587B191B781900100000F0F1FA8C
:10BDD000FB1D1A78104BD200D258BB191B88D8B261
:10BDE000FB1D1B780C49DB00CB1804331B681900C2
:10BDF00090470F217B181A787B1801321A700F2395
:10BE0000FB181B78032BB4D9C046BD4605B0F0BD66
:10BE1000AC14002074140020B014002080B582B04F
:10BE200000AF7860A023DB051800BD4602B080BDDE
:10BE300090B585B000AF78600C0010001900FB1CB5
:10BE4000221C1A70BB1C021C1A707B1C0A1C1A7064
:10BE50003B1D1800FFF7E2FF0300FB60FB1C1A7894
:10BE6000BB1C1B785B001A437B1C1B789B001A438E
:10BE70002023FB181B781B021A4311002423FB18F4
:10BE80001B781B047A681943FB68C132FF329200A9
:10BE9000D150C046BD4605B090BD80B584B002AF5C
:10BEA0007860786800230193002300930023012227
:10BEB0000121FFF7BDFFC046BD4602B080BD80B581
:10BEC00084B002AF78600A00FB1C1A70FB1C1B7860
:10BED0007868002201920022009200220021FFF7E0
:10BEE000A7FFC046BD4602B080BD80B584B000AF9C
:10BEF00078603B1D1800FFF791FF0300FB607B6833
:10BF000001229A40FB681100180000F01AF8C046A0
:10BF1000BD4604B080BD80B584B000AF78603B1DE5
:10BF20001800FFF77BFF0300FB607B6801229A404B
:10BF3000FB681100180000F013F8C046BD4604B0BD
:10BF400080BD80B582B000AF786039607A68A12387
:10BF5000DB003968D150C046BD4602B080BD00004C
:10BF600080B582B000AF786039607B6803493A6879
:10BF70005A50C046BD4602B080BDC0460C05000008
:10BF800080B588B000AFF860B9607A603B601F236D
:10BF9000FB1800221A70FB68002B5AD0BB68002BDC
:10BFA00057D0FB68BA681A60FB681B681B78DA0018
:10BFB000314BD318BB61BB697A681A60FB681B6898
:10BFC0001A6ABB695A60FB68180000F039F9FB680F
:10BFD0005B687B61FB681B685968FB681B689A6833
:10BFE000FB681B68DB68786900F06AFAFB681B680D
:10BFF0009A697B691100180000F07EFAFB681B68E3
:10C00000197FFB681B685A7F7B69180000F084FA6F
:10C010007B68002B03D07B69180000F0B1FA7B69C4
:10C02000180000F0BAFA7B68002B09D0FB680833CF
:10C030001A00FB681B681B7D19001000FFF7D6FD76
:10C040001F23FB181B78002B08D1FB6801225A72B2
:10C0500004E01F23FB1801221A7000E0C0463B6871
:10C06000002B04D03B681F22BA1812781A70C04601
:10C07000BD4608B080BDC046C814002080B588B059
:10C0800000AFF860B9603B60BB1D1A801F23FB182E
:10C0900000221A70FB68002B02D1BB68002B4BD02A
:10C0A000FB685B68BB61FB681B681B691800FFF7D6
:10C0B00032FFBA6984235B000021D150BB685A1C4F
:10C0C000BA601B781900BB69234A995018E0BB6815
:10C0D0005A1CBA601B781900BB691F4A9950C046A8
:10C0E000BA6984235B00D358002BF9D0BA69842342
:10C0F0005B000021D150BA69A323DB00D3587B61D8
:10C10000BB1DBA1D1288013A1A80BB1D1B88002B6B
:10C11000DDD1C046BA6984235B00D358002BF9D027
:10C12000BA69A323DB00D3587B61FB681B681B69DA
:10C130001800FFF7DAFE03E01F23FB1801221A7034
:10C140003B68002B04D03B681F22BA1812781A7083
:10C15000C046BD4608B080BD1C05000080B586B055
:10C1600000AFF8607A603B600A23FB180A1C1A8053
:10C170001723FB1800221A70FB68002B02D17B6882
:10C18000002B4AD0FB685B683B61FB681B681B693E
:10C190001800FFF7C0FE3A6984235B000021D150EC
:10C1A0003B69264A0021995018E03B69234A002147
:10C1B0009950C0463A6984235B00D358002BF9D0CC
:10C1C0003A6984235B000021D1503A69A323DB0044
:10C1D000D1587B685A1C7A60CAB21A700A217B183F
:10C1E0007A181288013A1A807B181B88002BDCD140
:10C1F000C0463A6984235B00D358002BF9D03A69D2
:10C20000A323DB00D358DAB27B681A70FB681B6883
:10C210001B691800FFF769FE03E01723FB180122D2
:10C220001A703B68002B04D03B681722BA181278AA
:10C230001A70C046BD4606B080BDC0461C05000051
:10C2400080B582B000AF78607B681B681B7F012BD4
:10C2500006D87B681B685B681800FFF75CFE05E08A
:10C260007B681B685B681800FFF73FFEA023DA05B8
:10C270007B681B685B68C133FF339B0001219950C9
:10C280007B681B689B681800FFF745FE7B681B688E
:10C290009B681800FFF701FE7B681B68DB680021C4
:10C2A0001800FFF70CFE7B681B681B691800FFF77E
:10C2B0001CFE7B681B681B691800FFF7EEFDC0467B
:10C2C000BD4602B080BD80B582B000AF78600A0084
:10C2D000FB1C1A707A68A223DB00D3580F22934309
:10C2E0001A00FB1C1B780F210B401A4311007A68BF
:10C2F000A223DB00D150C046BD4602B080BD80B550
:10C3000082B000AF78600A00FB1C1A707A68A12323
:10C31000DB00D358032293431A00FB1C1B78032134
:10C320000B401A4311007A68A123DB00D150C046AC
:10C33000BD4602B080BD000080B582B000AF78601D
:10C340000A00FB1C1A707B68084A9B580122934321
:10C350001A00FB1C1B7801210B401A437B68034920
:10C360005A50C046BD4602B080BDC046040500001C
:10C3700090B585B000AF78600F23FB1800221A70CB
:10C380000DE00F243B191A787B681100180000F0AB
:10C3900010F821007B181A787B1801321A700F23CD
:10C3A000FB181B78032BECD9C046C046BD4605B030
:10C3B00090BD80B582B000AF78600A00FB1C1A7097
:10C3C000FB1C1B7850339B007A68D31800221A603C
:10C3D000C046BD4602B080BD80B582B000AF786077
:10C3E0000A00FB1C1A70FB1C1B7850331B017A6877
:10C3F000D3181B685A1E9341DBB21800BD4602B029
:10C4000080BD80B582B000AF0200FB1D1A70FB1D1D
:10C410001B7850339BB29B009BB21800BD4602B004
:10C4200080BD80B582B000AF78600A00FB1C1A7036
:10C430007A68C1239B00D358FA1C127880214902E4
:10C4400091400A0013405A1E9341DBB21800BD46CA
:10C4500002B080BD80B500AF8023DA0580235B0089
:10C460000021D1508023DA05AA23DB000021D1501E
:10C470008023DB0501221A60C0468023DA05802371
:10C480005B00D358002BF8D000F004F8C046BD463E
:10C4900080BD000080B582B000AF8023DB05074A75
:10C4A0009B5801221A40FB1D511E8A411A70FB1D28
:10C4B0001B781800BD4602B080BDC0460C040000C9
:10C4C00080B584B000AFF860B9607A603B60FA680C
:10C4D000A123DB00B968D150FB6806497A685A503D
:10C4E000FA68A223DB003968D150C046BD4604B0CB
:10C4F00080BDC0460C05000080B582B000AF7860FA
:10C5000039603A687B6803495A50C046BD4602B05C
:10C5100080BDC0462405000080B584B000AF7860BF
:10C5200008001100FB1C021C1A70BB1C0A1C1A70AC
:10C53000BB1C1B78FB60FB1C1B78032B0FD013DC90
:10C54000012B02D0022B05D00EE0FB680222134320
:10C55000FB600AE0FB6804221343FB6005E0FB6814
:10C5600006221343FB6000E0C0467B680349FA687B
:10C570005A50C046BD4604B080BDC04654050000B8
:10C5800080B582B000AF78607A68C1239B00042137
:10C59000D150C046BD4602B080BD80B582B000AF6C
:10C5A00078607A68A023DB000121D150C046BD46E7
:10C5B00002B080BD80B582B000AF204B7B607B684D
:10C5C00002221A617B6802225A617B681C4A9A61C6
:10C5D0007B681C4ADA617B68802292001A627B6861
:10C5E00000229A627B6800225A627B680022DA622B
:10C5F0007B68134A9A647B68134ADA647B6810226A
:10C600001A657B6800229A657B6800225A657B6800
:10C610000022DA657B6807330C4A1100180001F02C
:10C620000CFE7B680A4A1100180001F006FE7B68C8
:10C6300020229A71C046BD4602B080BD901B0020EA
:10C64000A4E20100D8140020D8160020B0E20100B6
:10C65000B4E2010080B588B000AFF860B9607A60DC
:10C660000023BB61FB68DB687B61FB681B693B6186
:10C670003A697B699A4205D93A697B69D31A013BC9
:10C68000FB6107E0FB689A6839697B69CB1AD318AC
:10C69000013BFB61FB689A687B69D21AFB69934294
:10C6A00000D91300FB61FA697B68934200D913003B
:10C6B000FB61FB685A687B69D318FA69B96818008E
:10C6C00001F0B2FDBA69FB69D318BB61BA68FB69B6
:10C6D000D318BB607A68FB69D31A7B607A69FB69FF
:10C6E000D3187B61FB689B687A699A4201D1002369
:10C6F0007B61FB687A69DA607B68002BB5D1BB6926
:10C700001800BD4608B080BD80B588B000AFF860A5
:10C71000B9607A60FB68DB68FB61FB689A68FB695B
:10C72000D31ABB61BA697B689A420ED9FB685A6812
:10C73000FB69D3187A68B968180001F075FDFA69C9
:10C740007B68D218FB68DA601AE0BB697B61FB6822
:10C750005A68FB69D3187A69B968180001F064FD5A
:10C760007A68BB69D31A7B61FB685868BA68BB6991
:10C77000D3187A69190001F057FDFB687A69DA600D
:10C78000C046BD4608B080BD80B586B000AF7860B9
:10C790007B681B693B617B68DB68FB603A69FB680F
:10C7A0009A4208D87B689A68FB68D21A3B69D3180A
:10C7B000013B7B6104E03A69FB68D31A013B7B6172
:10C7C0007B691800BD4606B080BD000080B588B00A
:10C7D00000AFF860B9607A60BB68BB61FB685A1C47
:10C7E00013005B009B18DB00234A9B187B617B696D
:10C7F0005B69022B2ED036D8002B02D0012B16D02D
:10C8000031E07B691800FFF7BFFF03003B613A6925
:10C810007B689A4202D20023FB6127E07B68FB61C0
:10C820007A68B9697B691800FFF76EFF1EE07B69C3
:10C830001800FFF7A9FF03003B613A697B68934248
:10C8400000D91300FB61FA69B9697B691800FFF729
:10C850005BFF0BE07A68B9697B691800FFF7FAFEA5
:10C860000300FB6102E00023FB61C046FB69180086
:10C87000BD4608B080BDC046901B002090B589B071
:10C8800000AFF860B9607A60114B1B78002B01D1C2
:10C89000FFF790FE0023BB6117243B1900221A709A
:10C8A0003B19180001F0F6FB7A68B968FB681800BC
:10C8B000FFF78CFF0300FB61BB693B191B78180075
:10C8C00001F0F4FBFB691800BD4609B090BDC046FD
:10C8D000901B002080B584B000AF786039603B6861
:10C8E000180001F0B2FC0300FB60FA6839687B684D
:10C8F0001800FFF7C3FF03001800BD4604B080BD59
:10C9000080B500AF044B1B78002B01D1FFF752FE1E
:10C91000C046BD4680BDC046901B002080B582B099
:10C9200000AF0200FB1D1A700C4B1B78002B07D0C8
:10C930000B4B1B78FA1D12789A4201D1002309E0B3
:10C94000FFF7DEFF054B01221A70054BFA1D127826
:10C950001A7000231800BD4602B080BDE816002002
:10C96000E916002080B500AF0120FFF7D7FF0300D4
:10C970001800BD4680BD000080B588B000AF78606B
:10C9800039607B6801337B600123BB611F23FB1887
:10C9900001221A700F217B1800221A707B181800D0
:10C9A00001F078FB324B1A683B681A60304B9A688A
:10C9B0002F4B59682E4B1B68CB1AD31801337B6160
:10C9C0007A68BB69D3183B613A697B699A423BD963
:10C9D0007B69002B33D008203B181A7803218A4347
:10C9E000111C01220A431A703B181A7804218A4349
:10C9F0001A703B181A7838218A43111C28220A43DE
:10CA00001A703B181A881B490A401A801A4B1B6877
:10CA10009B029B0A9B02BA689205920D1343BB606E
:10CA2000134B1B68591C124A1160114A926813403B
:10CA3000BA680F4902339B00CB1804331A601F23D6
:10CA4000FB1800221A7005E0094B1A687B68D2189F
:10CA5000074B1A600F23FB181B78180001F026FB08
:10CA60001F23FB181B781800BD4608B080BDC046C8
:10CA7000EC1600203FFCFFFF8014002090B587B02B
:10CA800000AF02003960FB1D1A7000237B612A4B46
:10CA90009B683B610C23FA187B6911001800FFF7B3
:10CAA0006BFF031E43D008243B191A7803218A43E5
:10CAB000111C01220A431A703B191A7804218A4377
:10CAC0001A70FB1D1B7807221340DAB23B190721AD
:10CAD0000A40D0001A7838218A43111C021C0A43EC
:10CAE0001A707B691A1C0F231340DAB23B19111C10
:10CAF0000F220A4090011A8810490A40111C021C9A
:10CB00000A431A803B689B029B0A9B02BA68920503
:10CB1000920D1343BB60FB685A1CFA603A691340DC
:10CB2000BA68054902339B00CB1804331A60C0462B
:10CB3000BD4607B090BDC046EC1600203FFCFFFF8D
:10CB400080B500AF054B5A68044B1B68D31A5A4294
:10CB50005341DBB21800BD4680BDC046EC16002034
:10CB6000F0B59DB004AFFFF7EBFF031E01D000232B
:10CB70005BE1B04B5B68FB65AE4B9B683B64FB6D58
:10CB8000BB65FB6D5A1CFA653A6C1340A94A023327
:10CB90009B00D31804331B68BB611FE01A23FB18EA
:10CBA0001B881B049B0D9BB21A001823FB181B88C3
:10CBB0001B049B0D9BB2D3181A00FB6D9B18FB65E1
:10CBC000FB6DBB65FB6D5A1CFA653A6C1340994AC4
:10CBD00002339B00D31804331B68BB6118217B18F8
:10CBE0001B7803221340DBB2002BD7D000237B65D8
:10CBF0007B181B7804221340DBB2002B01D00023EA
:10CC00007B655323FB1800221A7018217B181B78B0
:10CC100003221340DBB2022B00D0BAE0FB6D5A1C9A
:10CC2000FA653A6C1340834A02339B00D3180433ED
:10CC30001B687B631A23FB181B881B049B0D9BB28C
:10CC40003B637B181B881B049B0D9BB2FB64FB6D35
:10CC5000DB433A6C134001339B00FB623A6BFB6A87
:10CC60009A424CD9FB6A002B08D0FB6D3A6C1340FA
:10CC700002339A006F4BD318043300E06E4BBB6253
:10CC8000FB6A002B02D0FB6ADBB201E03B6BDBB23C
:10CC90002722BA181370FB6A002B01D0664B00E004
:10CCA00000233B62FB6A002B06D03B6BDAB2FB6AC7
:10CCB000DBB2D31ADAB200E000221F217B181A700F
:10CCC0005C4B5E4A9C581823FB181B789B065B0F35
:10CCD000DBB21E002723FB181B787A181278FD6C34
:10CCE000786B796D03923A6A02920193BB6A009362
:10CCF0002B0002003000A0470300FB6421E04D4BF5
:10CD00004E4A9C581823FB181B789B065B0FDBB21E
:10CD10001E00FB6D3A6C134002339A00454BD3184A
:10CD20000433FD6C786B796D00220392002202922D
:10CD30003A6B019200932B0002003000A0470300E1
:10CD4000FB64FA6C3B6B9A420AD13B6B03339B0842
:10CD5000FA6DD318FB655323FB1801221A7055E0B6
:10CD6000FB6C9B059B0D9AB21823FB1890011A8847
:10CD70003F210A40111C021C0A431A80BB6D3A6C09
:10CD80001340BA692B4902339B00CB1804331A6055
:10CD90003CE03B00BB64BB699B0AFB631823FB18A8
:10CDA0001B889B051B0FDBB2BB6300237B6412E077
:10CDB000FB6D5A1CFA653A6C13401E4A02339B0005
:10CDC000D31804331A68BB6C1A60BB6C0433BB64A1
:10CDD0007B6C01337B647A6CBB6B9A42E8D3154A57
:10CDE0008223DB00D5581823FB181B789B065B0FAA
:10CDF000DBB21E005323FC183800FA6B796DBB6B55
:10CE0000009303003000A847030023705323FB184E
:10CE10001B78002B02D0074BFA6D5A60FFF790FE8B
:10CE200003001A0001235340DBB21800BD4619B0BD
:10CE3000F0BDC046EC160020F816002014040000D7
:10CE400080B586B000AF78600C217B1800221A8074
:10CE50007B1800225A607B187A689A607B18044815
:10CE60001A00002100F006F8C046BD4606B080BD9D
:10CE70000140000080B584B000AFF860B9607A600E
:10CE8000064B19000120FFF7F9FDFFF76BFDC046C7
:10CE9000FFF766FE031EFBD1FFDEC046C8E20100BD
:10CEA00080B582B000AF0200FB1D1A70FB1D1B781D
:10CEB0001A001F231A40044B012191400A001A60F6
:10CEC000C046BD4602B080BD00E100E080B582B042
:10CED00000AF0200FB1D1A70FB1D1B781A001F23F8
:10CEE0001340054901229A40C0235B00CA50C04646
:10CEF000BD4602B080BDC04600E100E090B583B001
:10CF000000AF02003960FB1D1A70FB1D1B787F2BE0
:10CF100032D92F4AFB1D1B7819000F230B40083B09
:10CF20009B0806339B00D31804331B68FA1D127844
:10CF3000110003220A40D200FF2191400A00D2438F
:10CF40001A4011003B689B01FF221A40FB1D1B7811
:10CF5000180003230340DB009A401D48FB1D1B788B
:10CF60001C000F232340083B9B080A4306339B0009
:10CF7000C31804331A6027E0164AFB1D1B785BB206
:10CF80009B08C0339B009B58FA1D127811000322A6
:10CF90000A40D200FF2191400A00D2431A401100FA
:10CFA0003B689B01FF221A40FB1D1B7818000323DE
:10CFB0000340DB009A400748FB1D1B785BB29B08CF
:10CFC0000A43C0339B001A50C046BD4603B090BD13
:10CFD00000ED00E000E100E080B500AF024B1B680F
:10CFE0009847C046BD4680BD041B002080B582B076
:10CFF00000AF0200FB1D1A70BB1D0A1C1A70BB1D7E
:10D000001A78FB1D1B785BB211001800FFF776FF42
:10D01000FB1D1B785BB21800FFF758FFFB1D1B7848
:10D020005BB21800FFF73CFFC046BD4602B080BDB2
:10D0300080B582B000AF0200BB1D1A80BB1D1B88EB
:10D04000180000F01DF803001B68013B5A425341D1
:10D05000DBB21800BD4602B080BD80B582B000AF23
:10D060000200BB1D1A80BB1D1B88180000F008F8C9
:10D07000030000221A60C046BD4602B080BD000019
:10D0800080B582B000AF0200BB1D1A80BB1D1B889B
:10D09000034A944663441800BD4602B080BDC046B2
:10D0A0000060004080B582B000AF78600449C123C1
:10D0B0009B007A68CA50C046BD4602B080BDC046DB
:10D0C0000060004080B582B000AF7860044AC123A0
:10D0D0009B00D3587A6813401800BD4602B080BD4B
:10D0E0000060004080B582B000AF7860084A7B687D
:10D0F0004533FF339B009B58054901221A437B6847
:10D100004533FF339B005A50C046BD4602B080BD38
:10D110000060004080B584B000AFF860B960FB1DCE
:10D120001A70164AFB684533FF339B009B5813491E
:10D13000134A1A40FB684533FF339B005A500F4A8D
:10D14000FB684533FF339B009A58BB681902F823EC
:10D150005B011940FB1D1B781B041800C0239B02B8
:10D1600003400B4305491A43FB684533FF339B00DB
:10D170005A50C046BD4604B080BDC0460060004065
:10D18000FFE0FCFF80B582B000AF7860064A7B68A4
:10D190004533FF339B009B581B0A1F221340180086
:10D1A000BD4602B080BDC0460060004080B582B080
:10D1B00000AF7860064A7B684533FF339B009B587D
:10D1C0001B0C03221340DBB21800BD4602B080BD29
:10D1D0000060004080B582B000AF7860A023DB051E
:10D1E0001800BD4602B080BD90B585B000AF786034
:10D1F0000C0010001900FB1C221C1A70BB1C021C26
:10D200001A707B1C0A1C1A703B1D1800FFF7E2FF06
:10D210000300FB60FB1C1A78BB1C1B785B001A43E5
:10D220007B1C1B789B001A432023FB181B781B02D6
:10D230001A4311002423FB181B781B047A68194336
:10D24000FB68C132FF329200D150C046BD4605B0E6
:10D2500090BD80B584B002AF78600A00FB1C1A70E4
:10D26000FB1C1B78786800220192002200920022A9
:10D270000021FFF7B9FFC046BD4602B080BD80B5B2
:10D2800084B000AF78603B1D1800FFF7A3FF0300D8
:10D29000FB607A68FB68C132FF329200D3580222E9
:10D2A0009343BB607A68FB68C132FF329200B96871
:10D2B000D150C046BD4604B080BD000080B584B0EA
:10D2C00000AF78600A00FB1C1A703B1D1800FFF7C6
:10D2D00081FF0300FB607A68FB68C132FF32920075
:10D2E000D3587A680D491940FB68C132FF32920069
:10D2F000D1507A68FB68C132FF329200D358FA1CD1
:10D300001278120411007A681943FB68C132FF32A7
:10D310009200D150C046BD4604B080BDFFFFFCFF67
:10D3200080B584B000AF78603B1D1800FFF752FF56
:10D330000300FB60FB68180000F022F802007B6825
:10D34000DA401300012213401800BD4604B080BD2E
:10D3500080B584B000AF78603B1D1800FFF73AFF3E
:10D360000300FB607A68FB68C132FF329200D35839
:10D370001B0C03221340DBB21800BD4604B080BD75
:10D3800080B582B000AF78607A68A223DB00D35802
:10D390001800BD4602B080BD80B586B000AFF86011
:10D3A000B9607A60A023DB053B61FB687B6113E019
:10D3B0007B699B0018229446BC446344083B1B686D
:10D3C0001800FFF7DDFF02007B681A607B680433FA
:10D3D0007B607B6901337B61FA68BB68D3187A692B
:10D3E0009A42E5D3C046C046BD4606B080BD80B572
:10D3F00084B000AF786039603B68FB607B68DB0815
:10D40000BB607B68072213407B6001227B689A40E7
:10D410001300F968BA688A18127813401800BD46DC
:10D4200004B080BD80B584B000AF786039603B68DF
:10D43000FB607B68DB08BB607B68072213407B6076
:10D44000FA68BB68D3181B785AB201217B689940EF
:10D450000B005BB2134359B2FA68BB68D318CAB267
:10D460001A70C046BD4604B080BD000080B582B0D1
:10D4700000AF78600E4A20217B68D3185B181B78B8
:10D480005BB2002B0ADB0A4A20217B68D3185B18A9
:10D490001B785BB2032B01DC012300E000231A1C84
:10D4A00001231340DBB21800BD4602B080BDC04668
:10D4B0000C1B002080B582B000AF7860084A2021A4
:10D4C0007B68D3185B181B785BB20122032B01DC4D
:10D4D00000231A1CD3B21800BD4602B080BDC0465E
:10D4E0000C1B002080B582B000AF7860074A202175
:10D4F0007B68D3185B181B785BB2DB43DBB2DB09BC
:10D50000DBB21800BD4602B080BDC0460C1B002037
:10D5100080B584B000AFF860B9607A601A00FB1C77
:10D520001A70BB6858B2104A2021FB68D3185B18E8
:10D53000021C1A700C4BBA6892007968D150FB1C1F
:10D540001B7801225340DBB2002B09D0BB68043B9F
:10D55000FA6850B2044A4021D3185B18021C1A70B2
:10D56000C046BD4604B080BD0C1B002080B582B013
:10D5700000AF7860054A20217B68D3185B18FF2232
:10D580001A70C046BD4602B080BDC0460C1B0020CC
:10D5900080B582B000AF7860054A20217B68D3183F
:10D5A0005B181B785BB21800BD4602B080BDC04658
:10D5B0000C1B002080B582B000AF7860034B7A6806
:10D5C0009200D3581800BD4602B080BD0C1B00204D
:10D5D00080B588B000AFF860B960FB1D1A701F23DA
:10D5E000FB18FF221A70FB1D1B78002B01D00023B3
:10D5F00000E004237B61FB1D1B78002B01D004237A
:10D6000000E008233B617B69BB6114E0104BBA6901
:10D610009200D35801330BD1FB1D1B78BA68B9694E
:10D62000F868FFF775FF1F23FB18BA691A7006E048
:10D63000BB690133BB61BA693B699A42E6D31F23D8
:10D64000FB181B785BB21800BD4608B080BDC04611
:10D650000C1B002080B582B000AF0200FB1D1A70C9
:10D66000FB1D1A780A4B920001214942D150FB1D43
:10D670001B78032B08D9FB1D1B78043B044A40216F
:10D68000D3185B18FF221A70C046BD4602B080BD99
:10D690000C1B002080B582B000AF234B44229B5C62
:10D6A000002B03D008233B603B6838E0FB1D0022C1
:10D6B0001A7009E0FB1D1B781800FFF757FFFB1DD0
:10D6C0001A78FB1D01321A70FB1D1B781F2BF1D934
:10D6D000FB1D00221A7009E0FB1D1B781800FFF7E4
:10D6E000B9FFFB1D1A78FB1D01321A70FB1D1B7858
:10D6F000072BF1D903210620FFF778FCBE235B003E
:10D700001800FFF7AAFC80231B061800FFF7CAFCCD
:10D71000054B44220121995400233B603B681800CB
:10D72000BD4602B080BDC0460C1B0020B0B586B01F
:10D7300000AFF860B9607A6000237B61FB68180075
:10D74000FFF7D0FE031E02D008237B614CE0BB68CC
:10D75000DA7813257C197968FB681800FFF738FF21
:10D76000030023707B191B785BB201333AD0BB688E
:10D770009B78002B04D0FB681800FFF780FD06E0C3
:10D78000BB685A78FB6811001800FFF762FDBB68A0
:10D79000DB78002B0AD01323FB1800201856BB6837
:10D7A0001A78FB681900FFF7B5FC1DE013203B1841
:10D7B0001B785BB2043B0F4A4021D3185B18002151
:10D7C0005956BB681B789B015AB23B181B785BB259
:10D7D000043B0A4350B2074A4021D3185B18021C8D
:10D7E0001A7001E004237B617B691800BD4606B016
:10D7F000B0BDC0460C1B002090B589B000AF78606A
:10D800000A00FB1C1A707B681800FFF753FE031E0A
:10D8100039D07B681800FFF7BBFE0300043B364A93
:10D820004021D3185B1800229A560F217B181A70DA
:10D830000E203B187A18127892091A703B181B7840
:10D84000032B0CD17B681800FFF76AFD031E01D083
:10D85000032200E002221F23FB181A700AE00E23A5
:10D86000FB181B78012B01D1022200E003221F23A9
:10D87000FB181A701F23FB181A787B681100180018
:10D88000FFF71CFD34E07B681800FFF7EFFD031E77
:10D890002ED07B681800FFF77BFE0300BB61BB69DD
:10D8A0009BB240339AB216243B1992001A80BB698E
:10D8B0001800FFF717FC3B191B881800FFF7CDFB7A
:10D8C000FB1C1B78002B13D07B681800FFF760FE51
:10D8D00003001800FFF76EFE03003B613B69002B5D
:10D8E00006D00122BB699A4013001800FFF7DAFB4B
:10D8F000C046BD4609B090BD0C1B0020B0B594B029
:10D9000000AF0023FB640023FB604623FB1880224A
:10D9100052001A8001233B640023BB6422E04624AA
:10D920003B191B881800FFF783FB031E0ED03B6CCE
:10D930001800FFF7C7FB031E08D03B191B8818000F
:10D94000FFF78BFBFA6C3B6C1343FB643B6C5B0097
:10D950003B644622BB18BA18128804321A80BB6C8A
:10D960000133BB64BB6C032BD9D9BE235B00180009
:10D97000FFF75EFB031E10D0BE235B001800FFF70D
:10D980006CFBFB6C802212061343FB640C23FB1818
:10D990001A0001210020FFF7FFFCFB6C0F2213404F
:10D9A0002ED001233B640023BB6426E03B6CFA6C61
:10D9B00013401CD0BB6C1800FFF7E4FB03007B6333
:10D9C00033257C19BB6C1800FFF7F0FB03002370B4
:10D9D000BB6C1800FFF7EEFD0300FB62FB6A002B37
:10D9E00005D07B1919787A6BFB6A100098473B6C5D
:10D9F0005B003B64BB6C0133BB64BB6C032BD5D9B0
:10DA0000FB6C002B00DB19E13B23FB1800221A7092
:10DA10000023BB600023FB630CE0FB6B9B005022E8
:10DA20009446BC4463444C3B012252421A60FB6B57
:10DA30000133FB63FB6B002BEFD03B23FB18002271
:10DA40001A700023BB648DE07E4A4021BB6CD31862
:10DA50005B1800229A562B243B191A703B191B782D
:10DA6000C02293437B62774A4021BB6CD3185B187A
:10DA70001B785BB2013300D171E03A1D7B6A110063
:10DA80001800FFF7B4FC031E69D023257B193A194F
:10DA9000127892091A707B6A1800FFF779FD03006B
:10DAA0001800FFF787FD0300FB61FB69002B03D122
:10DAB0007B191B78032B52D12323FB181B78032BD4
:10DAC00006D10823FA187B6A11001800FFF7AAFC98
:10DAD0001B257C197B6A1800FFF73AFC03002370B2
:10DAE0000C23FA187B6A11001800FFF780FC030072
:10DAF0007B617B69002B03D07B191B78022B07D03D
:10DB00007B69002B2BD11B23FB181B78032B26D101
:10DB10002323FB181B78032B17D11B23FB181B781F
:10DB2000022B01D1032200E0022213217B181A707C
:10DB30007B181A787B6A11001800FFF7BFFB3B22A5
:10DB4000BB18BA18127801321A70FB69002B06D084
:10DB50002323FB1819787A6AFB6910009847BB6C7D
:10DB60000133BB64BB6C032B00D86DE73B23FB1870
:10DB70001B78002B5CD03A23FB1801221A703B0063
:10DB80001A0001210020FFF707FC0023FB6319E0C6
:10DB9000FB6B9B0050229446BC446344503B1A6884
:10DBA000FB6B9B0050218C46BC446344443B1B6888
:10DBB0009A4204D03A23FB1800221A7005E0FB6B4E
:10DBC0000133FB63FB6B002BE2D03A23FB181B787D
:10DBD000002B04D03B23FB1800221A7028E00023FE
:10DBE000FB6322E0FB6B9B0050229446BC446344E1
:10DBF000503B1A68FB6B9B0050218C46BC4463442D
:10DC0000443B1A60FB6B9B0050229446BC44634427
:10DC1000483B1A68FB6B9B0050218C46BC44634414
:10DC20004C3B1A60FB6B0133FB63FB6B002BD9D0C1
:10DC30003B23FB181B78002B00D0FEE6C046BD46F8
:10DC400014B0B0BD0C1B002003210A4802680A432F
:10DC50000260094802680A4302600849084A094B01
:10DC60009B1A03DD043BC858D050FBDC00F012F8CF
:10DC7000FDF750FA2405004054050040ECE2010095
:10DC8000C813002090140020FEE7FEE7FEE7FEE741
:10DC9000FEE7FEE780B500AF00F036F8031E06D0C1
:10DCA000134B144A1A60144B802212021A6000F0BF
:10DCB0006BF8031E05D08023DA05C123DB000121A8
:10DCC000D15000F087F8031E0ED00C4B1B68012BBF
:10DCD00007D00A4B0A4A1A60C046084B1B68012B42
:10DCE000FBD1084BC0221A60C046BD4680BDC0466D
:10DCF00004050040DFFF07C0186C004000EC064040
:10DD00007593000014EC064080B500AF1A4B1B68F9
:10DD1000FF221340012B2AD1184B1B680F221340FE
:10DD200025D1174B1B68F022134006D1154B1B68F9
:10DD3000F022134001D101231AE0114B1B68F0229D
:10DD40001340102B06D10F4B1B68F022134001D15A
:10DD500001230DE00A4B1B68F0221340302B06D143
:10DD6000084B1B68F022134001D1012300E000237F
:10DD70001800BD4680BDC046E00F00F0E40F00F083
:10DD8000E80F00F0EC0F00F080B500AF0D4B1B6802
:10DD9000FF221340012B11D10B4B1B680F221340A4
:10DDA0000CD10A4B1B68F0221340402B06D1084BC4
:10DDB0001B68F022134001D1012300E0002318006A
:10DDC000BD4680BDE00F00F0E40F00F0E80F00F06A
:10DDD000EC0F00F080B500AF144B1B68FF2213401E
:10DDE000012B1ED1124B1B680F22134019D1114B6E
:10DDF0001B68F0221340A02B06D10F4B1B68F022AA
:10DE0000134001D101230DE00A4B1B68F02213409F
:10DE1000D02B06D1084B1B68F022134001D10123FF
:10DE200000E000231800BD4680BDC046E00F00F0B2
:10DE3000E40F00F0E80F00F0EC0F00F052DF704745
:10DE4000C046180061DF7047C046180090B585B025
:10DE500000AF434B1B78DBB201225340DBB2002BF7
:10DE600000D073E00F23FB1800221A703D4B1A6894
:10DE70000E23FB1851424A411A700F243B191B789C
:10DE800001225340DBB2002B26D0374B1B78DBB28C
:10DE9000002B5DD13B1D1800FFF7D0FF0300BB60D6
:10DEA000BB68052B03D13B1901221A7014E0BB6833
:10DEB000002B04D0BB681800FEF7C2FF0CE07B68A3
:10DEC000180000F0A3F9294B1B68002B04D0274B46
:10DED0001B687A68100098470E243B191B780122B2
:10DEE0005340DBB2002B26D01F4B1B78DBB2002B3C
:10DEF00030D11F4B1A88BB1C1A801E4B1B68BA1CE2
:10DF000011001800FFF79EFF0300BB60BB68052BE4
:10DF100003D13B1901221A700DE0BB68002B04D01D
:10DF2000BB681800FEF78CFF05E00E4B1A68114B1A
:10DF30001B68180090470F23FB181B78002B9CD000
:10DF40000E23FB181B78002B06D196E7C04604E091
:10DF5000C04602E0C04600E0C046BD4605B090BDE8
:10DF6000581B0020641B0020591B0020681B002048
:10DF7000601B00205C1B002080B582B000AF0C4B02
:10DF80001B68002B0ED00A4B1B68984703007B6070
:10DF90007B683B603B68002B06D03B681800FEF7AF
:10DFA0004FFF01E0FFF752FFC046BD4602B080BD03
:10DFB000541B002080B582B000AFEFF310833B60AC
:10DFC0003B687B6072B6C0467B681800BD4602B0F5
:10DFD00080BD80B500AF62B6C046C046BD4680BDBC
:10DFE00080B584B000AF7860FFF7E4FF0300FB600A
:10DFF000114B5B68002B11D10F4B01225A600F4A65
:10E000008023D3580E4A1A400B4B1A600B4A8023C8
:10E010000B49D1507B6800221A7002E07B68012214
:10E020001A70FB68002B01D1FFF7D3FF0023180003
:10E03000BD4604B080BDC046081C002000E100E0E1
:10E04000FC06FFBC80B584B000AF0200FB1D1A7057
:10E050000E4B5B68002B13D0FB1D1B78002B0FD1E0
:10E06000FFF7A8FF0300FB60094A084B1B68136019
:10E07000064B00225A60FB68002B01D1FFF7A9FF75
:10E0800000231800BD4604B080BDC046081C002017
:10E0900000E100E080B582B000AF78607B681800D6
:10E0A000FFF79EFFC046BD4602B080BD80B582B07E
:10E0B00000AF0200FB1D1A70FB1D1B781800FFF754
:10E0C000C1FFC046BD4602B080BD80B582B000AF82
:10E0D00078608023DA05C2239B007968D150C0465E
:10E0E000BD4602B080BD80B582B000AF0200BB1D4E
:10E0F0001A80BB1D1B888022D205944663440022EF
:10E100001A60C046BD4602B080BD80B582B000AF87
:10E110000200BB1D1A80BB1D1B888022D2059446BD
:10E1200063441B685A1E9341DBB21800BD4602B01F
:10E1300080BD80B584B000AF78607B681B68FB60F1
:10E14000FB68002B03D0FB681A687B681A60FB68C9
:10E150001800BD4604B080BD80B584B000AF020099
:10E16000FB1D1A70FB1D1B78002B02D10C4BFB60B2
:10E1700001E00C4BFB60FB681800FFF7DAFF0300BF
:10E18000BB60BB68002B06D0BB685B68FA1D1278C9
:10E1900010009847EFE7C046C046BD4604B080BDBA
:10E1A000741B00207C1B002080B500AF80235B0027
:10E1B0001800FFF7AAFF031E0DD080235B00180094
:10E1C000FFF791FF0120FFF780FF0F4B01225A70EC
:10E1D0000020FFF7C1FF82235B001800FFF795FFC7
:10E1E000031E0DD082235B001800FFF77CFF022086
:10E1F000FFF76BFF044B01229A700120FFF7ACFF81
:10E20000C046BD4680BDC0466C1B002080B582B0B4
:10E2100000AF78607B68002B02D10020FFF79CFFE5
:10E22000C046BD4602B080BD002310B59A4200D161
:10E2300010BDCC5CC4540133F8E703000A78013107
:10E240001A700133002AF9D170470023C25C0133F0
:10E25000002AFBD1581E7047F8B5C046F8BC08BC70
:10E260009E467047F8B5C046F8BC08BC9E4670474D
:10E27000C8130020496E697469616C697A696E67B8
:10E28000206E524635312D4D5548412E2E2E0A0016
:10E2900002000001000102030405060708090A0B39
:10E2A000000000005465726D696E616C0000000032
:10E2B0005254540053454747455200004F7665720B
:10E2C000666C6F770D0A00004150505F4552524F07
:10E2D000523A4552524F523A466174616C0D0A00EF
:04E2E000000000003A
:08E2E40024CEFF7F01000000C1
:10E2EC000000000000000000000000000000000022
:10E2FC000000000000000000000000000000000012
:10E30C000000000000000000000000000000000001
:10E31C0000000000000000000000000000000000F1
:10E32C0000000000000000000000000000000000E1
:10E33C0000000000000000000000000000000000D1
:10E34C0068140020441400200200000000900040DB
:10E35C0002000001030000000000000000000000AB
:10E36C00050000000400000006000000030000008F
:10E37C00030000000000001001000000000000007D
:10E38C00000000000030004003000000008000404E
:10E39C000090004000A00040BCE201000024F4000A
:08E3AC00E9B00100C1B001005D
:040000031000DC49C4
:00000001FF
